{
  "contractName": "Transactions",
  "abi": [
    {
      "anonymous": false,
      "inputs": [
        {
          "indexed": false,
          "internalType": "address",
          "name": "sender",
          "type": "address"
        },
        {
          "indexed": false,
          "internalType": "address",
          "name": "receiver",
          "type": "address"
        },
        {
          "indexed": false,
          "internalType": "uint256",
          "name": "amount",
          "type": "uint256"
        },
        {
          "indexed": false,
          "internalType": "string",
          "name": "message",
          "type": "string"
        },
        {
          "indexed": false,
          "internalType": "uint256",
          "name": "timestamp",
          "type": "uint256"
        }
      ],
      "name": "Transfer",
      "type": "event"
    },
    {
      "inputs": [
        {
          "internalType": "address payable",
          "name": "receiver",
          "type": "address"
        },
        {
          "internalType": "uint256",
          "name": "amount",
          "type": "uint256"
        },
        {
          "internalType": "string",
          "name": "message",
          "type": "string"
        }
      ],
      "name": "addToBlockchain",
      "outputs": [],
      "stateMutability": "nonpayable",
      "type": "function"
    },
    {
      "inputs": [],
      "name": "getAllTransactions",
      "outputs": [
        {
          "components": [
            {
              "internalType": "address",
              "name": "sender",
              "type": "address"
            },
            {
              "internalType": "address",
              "name": "receiver",
              "type": "address"
            },
            {
              "internalType": "uint256",
              "name": "amount",
              "type": "uint256"
            },
            {
              "internalType": "string",
              "name": "message",
              "type": "string"
            },
            {
              "internalType": "uint256",
              "name": "timestamp",
              "type": "uint256"
            }
          ],
          "internalType": "struct Transactions.TransferStruct[]",
          "name": "",
          "type": "tuple[]"
        }
      ],
      "stateMutability": "view",
      "type": "function",
      "constant": true
    },
    {
      "inputs": [],
      "name": "getTransactionCount",
      "outputs": [
        {
          "internalType": "uint256",
          "name": "",
          "type": "uint256"
        }
      ],
      "stateMutability": "view",
      "type": "function",
      "constant": true
    }
  ],
  "bytecode": "0x608060405234801561001057600080fd5b50610b5d806100206000396000f3fe608060405234801561001057600080fd5b50600436106100415760003560e01c806327506f53146100465780632e7700f014610064578063eb12da4a14610082575b600080fd5b61004e61009e565b60405161005b91906106c2565b60405180910390f35b61006c61024f565b60405161007991906106f3565b60405180910390f35b61009c600480360381019061009791906108c1565b610258565b005b60606001805480602002602001604051908101604052809291908181526020016000905b8282101561024657838290600052602060002090600502016040518060a00160405290816000820160009054906101000a900473ffffffffffffffffffffffffffffffffffffffff1673ffffffffffffffffffffffffffffffffffffffff1673ffffffffffffffffffffffffffffffffffffffff1681526020016001820160009054906101000a900473ffffffffffffffffffffffffffffffffffffffff1673ffffffffffffffffffffffffffffffffffffffff1673ffffffffffffffffffffffffffffffffffffffff168152602001600282015481526020016003820180546101ab9061095f565b80601f01602080910402602001604051908101604052809291908181526020018280546101d79061095f565b80156102245780601f106101f957610100808354040283529160200191610224565b820191906000526020600020905b81548152906001019060200180831161020757829003601f168201915b50505050508152602001600482015481525050815260200190600101906100c2565b50505050905090565b60008054905090565b600160008082825461026a91906109bf565b9250508190555060016040518060a001604052803373ffffffffffffffffffffffffffffffffffffffff1681526020018573ffffffffffffffffffffffffffffffffffffffff16815260200184815260200183815260200142815250908060018154018082558091505060019003906000526020600020906005020160009091909190915060008201518160000160006101000a81548173ffffffffffffffffffffffffffffffffffffffff021916908373ffffffffffffffffffffffffffffffffffffffff16021790555060208201518160010160006101000a81548173ffffffffffffffffffffffffffffffffffffffff021916908373ffffffffffffffffffffffffffffffffffffffff1602179055506040820151816002015560608201518160030190805190602001906103a39291906103f4565b506080820151816004015550507fc4b32d7ff75a51e487f3cbb5d3202f2efecca1f4c2b987e0039c1d3220b48a8333848484426040516103e7959493929190610acd565b60405180910390a1505050565b8280546104009061095f565b90600052602060002090601f0160209004810192826104225760008555610469565b82601f1061043b57805160ff1916838001178555610469565b82800160010185558215610469579182015b8281111561046857825182559160200191906001019061044d565b5b509050610476919061047a565b5090565b5b8082111561049357600081600090555060010161047b565b5090565b600081519050919050565b600082825260208201905092915050565b6000819050602082019050919050565b600073ffffffffffffffffffffffffffffffffffffffff82169050919050565b60006104ee826104c3565b9050919050565b6104fe816104e3565b82525050565b6000819050919050565b61051781610504565b82525050565b600081519050919050565b600082825260208201905092915050565b60005b8381101561055757808201518184015260208101905061053c565b83811115610566576000848401525b50505050565b6000601f19601f8301169050919050565b60006105888261051d565b6105928185610528565b93506105a2818560208601610539565b6105ab8161056c565b840191505092915050565b600060a0830160008301516105ce60008601826104f5565b5060208301516105e160208601826104f5565b5060408301516105f4604086018261050e565b506060830151848203606086015261060c828261057d565b9150506080830151610621608086018261050e565b508091505092915050565b600061063883836105b6565b905092915050565b6000602082019050919050565b600061065882610497565b61066281856104a2565b935083602082028501610674856104b3565b8060005b858110156106b05784840389528151610691858261062c565b945061069c83610640565b925060208a01995050600181019050610678565b50829750879550505050505092915050565b600060208201905081810360008301526106dc818461064d565b905092915050565b6106ed81610504565b82525050565b600060208201905061070860008301846106e4565b92915050565b6000604051905090565b600080fd5b600080fd5b600061072d826104c3565b9050919050565b61073d81610722565b811461074857600080fd5b50565b60008135905061075a81610734565b92915050565b61076981610504565b811461077457600080fd5b50565b60008135905061078681610760565b92915050565b600080fd5b600080fd5b7f4e487b7100000000000000000000000000000000000000000000000000000000600052604160045260246000fd5b6107ce8261056c565b810181811067ffffffffffffffff821117156107ed576107ec610796565b5b80604052505050565b600061080061070e565b905061080c82826107c5565b919050565b600067ffffffffffffffff82111561082c5761082b610796565b5b6108358261056c565b9050602081019050919050565b82818337600083830152505050565b600061086461085f84610811565b6107f6565b9050828152602081018484840111156108805761087f610791565b5b61088b848285610842565b509392505050565b600082601f8301126108a8576108a761078c565b5b81356108b8848260208601610851565b91505092915050565b6000806000606084860312156108da576108d9610718565b5b60006108e88682870161074b565b93505060206108f986828701610777565b925050604084013567ffffffffffffffff81111561091a5761091961071d565b5b61092686828701610893565b9150509250925092565b7f4e487b7100000000000000000000000000000000000000000000000000000000600052602260045260246000fd5b6000600282049050600182168061097757607f821691505b60208210810361098a57610989610930565b5b50919050565b7f4e487b7100000000000000000000000000000000000000000000000000000000600052601160045260246000fd5b60006109ca82610504565b91506109d583610504565b9250827fffffffffffffffffffffffffffffffffffffffffffffffffffffffffffffffff03821115610a0a57610a09610990565b5b828201905092915050565b610a1e816104e3565b82525050565b6000819050919050565b6000610a49610a44610a3f846104c3565b610a24565b6104c3565b9050919050565b6000610a5b82610a2e565b9050919050565b6000610a6d82610a50565b9050919050565b610a7d81610a62565b82525050565b600082825260208201905092915050565b6000610a9f8261051d565b610aa98185610a83565b9350610ab9818560208601610539565b610ac28161056c565b840191505092915050565b600060a082019050610ae26000830188610a15565b610aef6020830187610a74565b610afc60408301866106e4565b8181036060830152610b0e8185610a94565b9050610b1d60808301846106e4565b969550505050505056fea264697066735822122082921a0ff70b77861c4f6ab2f994869938e524259697467e19377e6db09f894f64736f6c634300080d0033",
  "immutableReferences": {},
  "source": "//SPDX-License-Identifier: UNLICENSED\r\npragma solidity ^0.8.0;\r\n\r\ncontract Transactions {\r\n    uint256 transactionCount;\r\n\r\n    event Transfer(address sender, address receiver, uint amount, string message, uint256 timestamp);\r\n\r\n    struct TransferStruct{\r\n        address sender;\r\n        address receiver;\r\n        uint amount;\r\n        string message;\r\n        uint256 timestamp;\r\n    }\r\n\r\n    //array of objects of type structure defined above\r\n    TransferStruct[] transactions;\r\n\r\n    function addToBlockchain(address payable receiver, uint amount, string memory message) public{\r\n        transactionCount += 1;\r\n        transactions.push(TransferStruct(msg.sender,receiver,amount,message,block.timestamp));\r\n\r\n        emit Transfer(msg.sender,receiver,amount,message,block.timestamp);\r\n    }\r\n\r\n    function getAllTransactions() public view returns(TransferStruct[] memory){\r\n        return transactions;\r\n    }\r\n    \r\n    function getTransactionCount() public view returns(uint256){\r\n        return transactionCount;\r\n    }\r\n\r\n} ",
  "sourcePath": "C:\\React_JS\\eth-swap\\contract\\contracts\\Transactions.sol",
  "compiler": {
    "name": "solc",
    "version": "0.8.13+commit.abaa5c0e.Emscripten.clang"
  },
  "schemaVersion": "3.4.6",
  "updatedAt": "2022-06-15T14:50:10.661Z",
  "networkType": "ethereum",
  "devdoc": {
    "kind": "dev",
    "methods": {},
    "version": 1
  },
  "userdoc": {
    "kind": "user",
    "methods": {},
    "version": 1
  }
}